:100000000C9462000C948A000C948A000C948A0070
:100010000C948A000C948A000C948A000C948A0038
:100020000C948A000C948A000C948A000C948A0028
:100030000C948A000C948A000C948A000C948A0018
:100040000C94B9020C948A000C9487020C946102FF
:100050000C948A000C948A000C948A000C948A00F8
:100060000C948A000C948A000000000024002700F1
:100070002A0000000000250028002B0000000000DE
:1000800023002600290004040404040404040202DA
:100090000202020203030303030301020408102007
:1000A0004080010204081020010204081020000012
:1000B0000008000201000003040700000000000027
:1000C0000000B90411241FBECFEFD8E0DEBFCDBFC2
:1000D00011E0A0E0B1E0ECE5FDE002C005900D927A
:1000E000A833B107D9F721E0A8E3B1E001C01D9220
:1000F000AE3DB207E1F710E0C2E6D0E004C02197C0
:10010000FE010E94A606C136D107C9F70E9403036B
:100110000C94AC060C940000AF92BF92CF92DF9289
:10012000EF92FF920F931F93CF93DF936C017B01AC
:100130008B01040F151FEB015E01AE18BF08C0173D
:10014000D10759F06991D601ED91FC910190F081B0
:10015000E02DC6010995892B79F7C501DF91CF9173
:100160001F910F91FF90EF90DF90CF90BF90AF90D5
:100170000895FC01538D448D252F30E0842F90E0AD
:10018000821B930B541710F0CF9608950197089592
:10019000FC01918D828D981761F0A28DAE0FBF2F5B
:1001A000B11D5D968C91928D9F5F9F73928F90E0B1
:1001B00008958FEF9FEF0895FC01918D828D981720
:1001C00031F0828DE80FF11D858D90E008958FEF5D
:1001D0009FEF0895FC01918D228D892F90E0805C26
:1001E0009F4F821B91098F739927089581E491E0B5
:1001F0000E94EA0021E0892B09F420E0822F089573
:1002000080E090E0892B29F00E94F60081110C9487
:1002100000000895FC01A48DA80FB92FB11DA35AA9
:10022000BF4F2C91848D90E001968F739927848F16
:10023000A689B7892C93A089B1898C918370806439
:100240008C93938D848D981306C00288F389E02DDA
:1002500080818F7D80830895EF92FF920F931F938B
:10026000CF93DF93EC0181E0888F9B8D8C8D981369
:100270001AC0E889F989808185FF15C09FB7F89475
:10028000EE89FF896083E889F989808183708064C1
:1002900080839FBF81E090E0DF91CF911F910F910C
:1002A000FF90EF900895F62E0B8D10E00F5F1F4F1B
:1002B0000F731127E02E8C8D8E110CC00FB607FC2A
:1002C000FACFE889F989808185FFF5CFCE010E94B8
:1002D0000A01F1CFEB8DEC0FFD2FF11DE35AFF4F1B
:1002E000F0829FB7F8940B8FEA89FB898081806246
:1002F000CFCFCF93DF93EC01888D8823B9F0AA8903
:10030000BB89E889F9898C9185FD03C0808186FDD0
:100310000DC00FB607FCF7CF8C9185FFF2CF80811F
:1003200085FFEDCFCE010E940A01E9CFDF91CF9189
:100330000895833081F028F4813099F08230A9F05B
:1003400008958730A9F08830C9F08430B1F48091E5
:1003500080008F7D03C0809180008F778093800024
:10036000089584B58F7784BD089584B58F7DFBCFC4
:100370008091B0008F778093B00008958091B00095
:100380008F7DF9CF1F93CF93DF93282F30E0F901B2
:10039000E255FF4F8491F901E656FF4FD491F901E0
:1003A000EA57FF4FC491CC23A9F0162F81110E9468
:1003B0009901EC2FF0E0EE0FFF1FEE58FF4FA591D3
:1003C000B4918FB7F894EC91111108C0D095DE2349
:1003D000DC938FBFDF91CF911F910895DE2BF8CF73
:1003E000CF93DF9390E0FC01E656FF4F24918A57AC
:1003F0009F4FFC0184918823D1F090E0880F991FD2
:10040000FC01E859FF4FA591B491FC01EE58FF4F54
:10041000C591D49161110EC09FB7F8948C91E22FD1
:10042000E0958E238C932881E223E8839FBFDF91A0
:10043000CF9108958FB7F894EC91E22BEC938FBF96
:10044000F6CF3FB7F89480913D0190913E01A09185
:100450003F01B091400126B5A89B05C02F3F19F080
:100460000196A11DB11D3FBFBA2FA92F982F882734
:10047000BC01CD01620F711D811D911D42E0660F0F
:10048000771F881F991F4A95D1F70895FC010190A5
:100490000020E9F73197AF01481B590BBC0181E4FB
:1004A00091E00C948C00CF93DF930E944602EC0104
:1004B00082E191E00E9446028C0F9D1FDF91CF9157
:1004C00008951F920F920FB60F9211242F933F930E
:1004D0004F935F936F937F938F939F93AF93BF934C
:1004E000EF93FF9381E491E00E940A01FF91EF9165
:1004F000BF91AF919F918F917F916F915F914F913C
:100500003F912F910F900FBE0F901F9018951F9243
:100510000F920FB60F9211242F938F939F93EF9307
:10052000FF93E0915101F09152018081E0915701D8
:10053000F091580182FD1BC0908180915A018F5F1C
:100540008F7320915B01821741F0E0915A01F0E036
:10055000EF5BFE4F958F80935A01FF91EF919F9132
:100560008F912F910F900FBE0F901F901895808143
:10057000F4CF1F920F920FB60F9211242F933F9337
:100580008F939F93AF93BF938091390190913A01DC
:10059000A0913B01B0913C013091380123E0230F41
:1005A0002D3758F50196A11DB11D20933801809378
:1005B000390190933A01A0933B01B0933C018091A3
:1005C0003D0190913E01A0913F01B0914001019603
:1005D000A11DB11D80933D0190933E01A0933F0169
:1005E000B0934001BF91AF919F918F913F912F9117
:1005F0000F900FBE0F901F90189526E8230F0296BC
:10060000A11DB11DD2CFCF93DF93CDB7DEB7A19798
:100610000FB6F894DEBF0FBECDBF789484B582606C
:1006200084BD84B5816084BD85B5826085BD85B596
:10063000816085BD80916E00816080936E00109214
:10064000810080918100826080938100809181008F
:100650008160809381008091800081608093800020
:100660008091B10084608093B1008091B00081607E
:100670008093B00080917A00846080937A008091AA
:100680007A00826080937A0080917A008160809302
:100690007A0080917A00806880937A001092C1007D
:1006A000E0915101F091520182E08083E0914D018F
:1006B000F0914E011082E0914F01F09150018FECCA
:1006C000808310925901E0915501F091560186E026
:1006D0008083E0915301F091540180818061808397
:1006E000E0915301F0915401808188608083E09112
:1006F0005301F0915401808180688083E09153011F
:10070000F091540180818F7D808361E08DE00E94B3
:10071000F00161E08CE00E94F00161E08BE00E945A
:10072000F00161E088E00E94F00160E082E00E9458
:10073000F0012AE0422E512C612C712C30E0232E46
:1007400030E0332E20E420937C0080917A00806496
:1007500080937A0080917A0086FDFCCF80917800AA
:1007600060917900762F682F072E000C880B990B6B
:100770000E948B052CE035E449EF5EE30E941706EA
:100780000E9453058B01072E000C880B990B0E94C9
:100790008B0520E030E040E05FE317FDB7C00E942A
:1007A000E7040E9453058B016032710564F461E037
:1007B0008BE00E94C20160E08CE00E94C20160E018
:1007C0008DE00E94C201C8018097099708F0A1C07E
:1007D00060E08DE00E94C20161E08CE00E94C201F5
:1007E00060E08BE00E94C2010E9421026B017C014B
:1007F00094E6892E912CA12CB12C0E9421026C1917
:100800007D098E099F09683E734081059105A8F313
:1008100081E0881A9108A108B10898EEC90E93E00A
:10082000D91EE11CF11C81149104A104B10429F723
:1008300060E08BE00E94C20160E08CE00E94C20197
:1008400060E08DE00E94C2016801110FEE08FF0810
:10085000F7FE6EC06DE281E491E00E942C01222738
:100860003327A9012C193D094E095F0919A2CE01B0
:1008700081967C01CA01B901A30192010E948406FC
:10088000605DF70162937F01211531054105510536
:1008900089F7E114F10419F0C7010E94460282E1D0
:1008A00091E00E944602E0EBF0E08491ECE9F0E098
:1008B0001491E8E8F0E00491002309F44FC081119D
:1008C0000E949901E02FF0E0EE0FFF1FE458FF4F68
:1008D000A591B4918C91182309F440C061E088E09F
:1008E0000E94C20185E191E00E94530286E291E0FC
:1008F0000E9453022114310409F424CF0E94F6000F
:10090000882309F41FCF0E9400001CCF0E94E60438
:1009100048CF093211050CF467CF60E08BE00E94EC
:10092000C20160E08CE00E94C20161E08DE05ACF1C
:10093000A701960119A2CE0181967C01CA01B901D5
:10094000A30192010E948406605DF70162937F011A
:10095000211531054105510589F79BCF60E088E0FD
:100960000E94C20188E291E00E94530286E391E076
:10097000BFCFE1E4F1E01382128288EE93E0A0E0C1
:10098000B0E084839583A683B78384E091E091836C
:10099000808385EC90E09587848784EC90E097874E
:1009A000868780EC90E0918B808B81EC90E0938B3C
:1009B000828B82EC90E0958B848B86EC90E0978B19
:1009C000868B118E128E138E148E08955058BB276D
:1009D000AA270E94FE040C94DD050E94CF0538F082
:1009E0000E94D60520F039F49F3F19F426F40C94A8
:1009F000CC050EF4E095E7FB0C94C605E92F0E94A8
:100A0000EE0558F3BA17620773078407950720F0BD
:100A100079F4A6F50C9410060EF4E0950B2EBA2F7F
:100A2000A02D0B01B90190010C01CA01A0011124F4
:100A3000FF27591B99F0593F50F4503E68F11A16A0
:100A4000F040A22F232F342F4427585FF3CF469531
:100A500037952795A795F0405395C9F77EF41F1653
:100A6000BA0B620B730B840BBAF09150A1F0FF0F1D
:100A7000BB1F661F771F881FC2F70EC0BA0F621F09
:100A8000731F841F48F4879577956795B795F795F9
:100A90009E3F08F0B0CF9395880F08F09927EE0F8E
:100AA0009795879508950E945A056894B1110C9402
:100AB000110608950E94F60588F09F5798F0B92F07
:100AC0009927B751B0F0E1F0660F771F881F991F83
:100AD0001AF0BA95C9F714C0B13091F00E9410060F
:100AE000B1E008950C941006672F782F8827B85F1F
:100AF00039F0B93FCCF3869577956795B395D9F7DB
:100B00003EF490958095709561957F4F8F4F9F4FE4
:100B10000895E89409C097FB3EF4909580957095F0
:100B200061957F4F8F4F9F4F9923A9F0F92F96E939
:100B3000BB279395F695879577956795B795F111AE
:100B4000F8CFFAF4BB0F11F460FF1BC06F5F7F4F4B
:100B50008F4F9F4F16C0882311F096E911C077235D
:100B600021F09EE8872F762F05C0662371F096E866
:100B7000862F70E060E02AF09A95660F771F881F35
:100B8000DAF7880F9695879597F9089597F99F67F3
:100B900080E870E060E008959FEF80EC0895002405
:100BA0000A941616170618060906089500240A94D2
:100BB00012161306140605060895092E0394000C58
:100BC00011F4882352F0BB0F40F4BF2B11F460FFE7
:100BD00004C06F5F7F4F8F4F9F4F089557FD905810
:100BE000440F551F59F05F3F71F04795880F97FBF1
:100BF000991F61F09F3F79F08795089512161306AB
:100C00001406551FF2CF4695F1DF08C016161706D9
:100C10001806991FF1CF869571056105089408950E
:100C2000E894BB2766277727CB0197F908950E94A0
:100C30002A060C94DD050E94CF0538F00E94D605E7
:100C400020F0952311F00C94C6050C94CC051124CA
:100C50000C9411060E94EE0570F3959FC1F3950F59
:100C600050E0551F629FF001729FBB27F00DB11D30
:100C7000639FAA27F00DB11DAA1F649F6627B00DC0
:100C8000A11D661F829F2227B00DA11D621F739FA9
:100C9000B00DA11D621F839FA00D611D221F749FB7
:100CA0003327A00D611D231F849F600D211D822FFE
:100CB000762F6A2F11249F5750409AF0F1F0882325
:100CC0004AF0EE0FFF1FBB1F661F771F881F915052
:100CD0005040A9F79E3F510580F00C94C6050C9436
:100CE00011065F3FE4F3983ED4F3869577956795B8
:100CF000B795F795E7959F5FC1F7FE2B880F911D7C
:100D00009695879597F90895A1E21A2EAA1BBB1B09
:100D1000FD010DC0AA1FBB1FEE1FFF1FA217B307C7
:100D2000E407F50720F0A21BB30BE40BF50B661FDD
:100D3000771F881F991F1A9469F7609570958095A1
:100D400090959B01AC01BD01CF010895EE0FFF1FEF
:0C0D50000590F491E02D0994F894FFCF79
:100D5C00000000002C018C00B9007901EA00C800E9
:100D6C00DC000D0A004D6F74696F6E20646574654C
:100D7C0063746564210031004D6F74696F6E20657A
:080D8C006E6465642100300073
:00000001FF
